:100000000C945C000C944C030C9479030C947900D0
:100010000C9479000C9479000C9479000C9479007C
:100020000C9479000C9479000C9479000C9479006C
:100030000C9479000C9479000C9479000C9479005C
:100040000C94A6030C9479000C9479000C9479001C
:100050000C9479000C9479000C9479000C9479003C
:100060000C9479000C947900000000080002010053
:100070000003040700000000000000000102040863
:100080001020408001020408102001020408102002
:10009000040404040404040402020202020203032E
:1000A0000303030300000000250028002B000000CC
:1000B0000000240027002A0011241FBECFEFD8E043
:1000C000DEBFCDBF11E0A0E0B1E0E8E5FAE002C09C
:1000D00005900D92A431B107D9F721E0A4E1B1E078
:1000E00001C01D92A632B207E1F70E941A050C94D6
:1000F0002A050C94000081E08093000108951F936D
:10010000CF93DF93C0910901D0E013E0C2FF02C09A
:1001100061E001C060E083E00E94E304CC0FDD1FDA
:1001200061E086E00E94E30460E086E00E94E30470
:10013000115061F7C0911801D0E012E0C1FF02C078
:1001400061E001C060E083E00E94E304CC0FDD1FAA
:1001500061E086E00E94E30460E086E00E94E30440
:10016000115061F780911501882311F061E001C001
:1001700060E083E00E94E30461E086E00E94E30423
:1001800060E086E00E94E30480910201882311F080
:1001900061E001C060E083E00E94E30461E086E08A
:1001A0000E94E30460E086E00E94E304C091120133
:1001B000D09113011FE0D6FF02C061E001C060E0F2
:1001C00083E00E94E304CC0FDD1F61E086E00E9423
:1001D000E30460E086E00E94E304115061F760E010
:1001E00083E00E94E30461E086E00E94E30460E0B3
:1001F00086E00E94E30460E083E00E94E30461E0A3
:1002000086E00E94E30460E086E00E94E30460E090
:1002100083E0DF91CF911F910C94E3041F93CF9360
:10022000DF9380910401882311F061E001C060E058
:1002300083E00E94E30461E086E00E94E30460E062
:1002400086E00E94E30480911701882311F061E0A9
:1002500001C060E083E00E94E30461E086E00E9468
:10026000E30460E086E00E94E304C0910801D0E06E
:1002700012E0C1FF02C061E001C060E083E00E94C3
:10028000E304CC0FDD1F61E086E00E94E30460E040
:1002900086E00E94E304115061F7C0911001D091F3
:1002A00011011CE0D3FF02C061E001C060E083E007
:1002B0000E94E304CC0FDD1F61E086E00E94E304AE
:1002C00060E086E00E94E304115061F7C0910601EE
:1002D000D0E016E0C5FF02C061E001C060E083E04D
:1002E0000E94E304CC0FDD1F61E086E00E94E3047E
:1002F00060E086E00E94E304115061F760E083E073
:100300000E94E30461E086E00E94E30460E086E08E
:100310000E94E30461E083E00E94E30461E086E080
:100320000E94E30460E086E00E94E30460E083E072
:10033000DF91CF911F910C94E3041F93CF93DF9330
:10034000C0910A01D0E013E0C2FF02C061E001C029
:1003500060E083E00E94E304CC0FDD1F61E086E0F3
:100360000E94E30460E086E00E94E304115061F71C
:10037000C0910B01D0E012E0C1FF02C061E001C0FA
:1003800060E083E00E94E304CC0FDD1F61E086E0C3
:100390000E94E30460E086E00E94E304115061F7EC
:1003A00080911401882311F061E001C060E083E0D6
:1003B0000E94E30461E086E00E94E30460E086E0DE
:1003C0000E94E30480910101882311F061E001C0E3
:1003D00060E083E00E94E30461E086E00E94E304C1
:1003E00060E086E00E94E304C0910E01D0910F010D
:1003F0001FE0D6FF02C061E001C060E083E00E9420
:10040000E304CC0FDD1F61E086E00E94E30460E0BE
:1004100086E00E94E304115061F761E083E00E94EE
:10042000E30461E086E00E94E30460E086E00E946D
:10043000E30460E083E00E94E30461E086E00E9460
:10044000E30460E086E00E94E30460E083E0DF9183
:10045000CF911F910C94E3041F93CF93DF9380916E
:100460000301882311F061E001C060E083E00E9495
:10047000E30461E086E00E94E30460E086E00E941D
:10048000E30480911601882311F061E001C060E06F
:1004900083E00E94E30461E086E00E94E30460E000
:1004A00086E00E94E304C0910701D0E012E0C1FFA2
:1004B00002C061E001C060E083E00E94E304CC0F71
:1004C000DD1F61E086E00E94E30460E086E00E94B8
:1004D000E304115061F7C0910C01D0910D011CE0B3
:1004E000D3FF02C061E001C060E083E00E94E3044A
:1004F000CC0FDD1F61E086E00E94E30460E086E04F
:100500000E94E304115061F7C0910501D0E016E0AC
:10051000C5FF02C061E001C060E083E00E94E30427
:10052000CC0FDD1F61E086E00E94E30460E086E01E
:100530000E94E304115061F761E083E00E94E3044C
:1005400061E086E00E94E30460E086E00E94E3044C
:1005500061E083E00E94E30461E086E00E94E3043E
:1005600060E086E00E94E30460E083E0DF91CF91E9
:100570001F910C94E30460E084E00E94E3040E9475
:100580007F0061E084E00E94E3048AE090E00E9442
:100590003B0460E084E00E94E3040E940E0161E0FD
:1005A00084E00E94E3048AE090E00E943B0460E063
:1005B00084E00E94E3040E949D0161E084E00E94C7
:1005C000E3048AE090E00E943B0460E084E00E9443
:1005D000E3040E942C0261E084E00E94E3048AE0CC
:1005E00090E00C943B0461E083E00E94AA0461E087
:1005F00084E00E94AA0461E085E00E94AA0461E010
:1006000086E00E94AA0461E08DE00E94AA0488EEC0
:1006100093E00E943B040E94BB0243E050E06BE782
:1006200070E080E00C942C0361E070E080E090E0EA
:100630000E9413040E94BB0261E08DE00E94E3046B
:1006400060E08DE00E94E30461E08DE00E94E3043D
:1006500060E08DE00C94E3048230E8F4E82FF0E0F1
:10066000EE0FFF1FE75EFE4F71836083813041F024
:10067000809169008C7F842B80936900E89A0895AB
:1006800080916900440F551F440F551F837F842BB1
:1006900080936900E99A08951F920F920FB60F9206
:1006A00011242F933F934F935F936F937F938F9377
:1006B0009F93AF93BF93EF93FF9380911901909114
:1006C0001A01892B29F0E0911901F0911A0109957D
:1006D000FF91EF91BF91AF919F918F917F916F911A
:1006E0005F914F913F912F910F900FBE0F901F90F0
:1006F00018951F920F920FB60F9211242F933F93CC
:100700004F935F936F937F938F939F93AF93BF9319
:10071000EF93FF9380911B0190911C01892B29F08D
:10072000E0911B01F0911C010995FF91EF91BF91A0
:10073000AF919F918F917F916F915F914F913F9179
:100740002F910F900FBE0F901F9018951F920F9230
:100750000FB60F9211242F933F938F939F93AF93D4
:10076000BF9380911E0190911F01A0912001B09133
:10077000210130911D0123E0230F2D3720F4019634
:10078000A11DB11D05C026E8230F0296A11DB11DB4
:1007900020931D0180931E0190931F01A0932001BF
:1007A000B09321018091220190912301A091240115
:1007B000B09125010196A11DB11D80932201909356
:1007C0002301A0932401B0932501BF91AF919F9184
:1007D0008F913F912F910F900FBE0F901F90189502
:1007E0003FB7F8948091220190912301A0912401B8
:1007F000B091250126B5A89B05C02F3F19F00196A1
:10080000A11DB11D3FBF6627782F892F9A2F620F38
:10081000711D811D911D42E0660F771F881F991F72
:100820004A95D1F70895CF92DF92EF92FF92CF933E
:10083000DF936B017C010E94F003EB01C114D10432
:10084000E104F10489F00E9429050E94F0036C1B69
:100850007D0B683E734090F381E0C81AD108E1082F
:10086000F108C851DC4FEACFDF91CF91FF90EF90B4
:10087000DF90CF9008958230910538F0880F991F4E
:10088000880F991F05970197F1F70895789484B51B
:10089000826084BD84B5816084BD85B5826085BD7C
:1008A00085B5816085BDEEE6F0E080818160808362
:1008B000E1E8F0E010828081826080838081816045
:1008C0008083E0E8F0E0808181608083E1EBF0E00C
:1008D000808184608083E0EBF0E0808181608083B0
:1008E000EAE7F0E080818460808380818260808399
:1008F0008081816080838081806880831092C100C4
:100900000895833081F028F4813099F08230A1F08D
:1009100008958730A9F08830B9F08430D1F48091FF
:1009200080008F7D03C0809180008F77809380004E
:10093000089584B58F7702C084B58F7D84BD0895F6
:100940008091B0008F7703C08091B0008F7D80933D
:10095000B0000895CF93DF9390E0FC01E458FF4F7F
:100960002491FC01E057FF4F8491882349F190E0E6
:10097000880F991FFC01E255FF4FA591B4918C554A
:100980009F4FFC01C591D4919FB7611108C0F894A5
:100990008C91209582238C93888182230AC06230B7
:1009A00051F4F8948C91322F309583238C93888165
:1009B000822B888304C0F8948C91822B8C939FBFE8
:1009C000DF91CF9108950F931F93CF93DF931F92E1
:1009D000CDB7DEB7282F30E0F901E859FF4F8491F9
:1009E000F901E458FF4F1491F901E057FF4F0491CA
:1009F0000023C9F0882321F069830E948104698162
:100A0000E02FF0E0EE0FFF1FEC55FF4FA591B491E2
:100A10009FB7F8948C91611103C01095812301C098
:100A2000812B8C939FBF0F90DF91CF911F910F91DE
:100A3000089508950E9446040E9419050E94F30239
:100A4000C0E0D0E00E9414032097E1F30E94000070
:080A5000F9CF0895F894FFCFDF
:100A580001010101010C0802020101020301C800A1
:040A68000001C800C1
:00000001FF
