:100000000C9434000C9451000C9451000C94510049
:100010000C9451000C9451000C9451000C9451001C
:100020000C9451000C9451000C9451000C9451000C
:100030000C9451000C9451000C9451000C945100FC
:100040000C9451000C9451000C9476050C943805D6
:100050000C9451000C9451000C9451000C945100DC
:100060000C9451000C94510011241FBECFEFD8E026
:10007000DEBFCDBF13E0A0E0B1E0E8E7F0E102C0F1
:1000800005900D92A230B107D9F724E0A2E0B3E0C9
:1000900001C01D92A631B207E1F70E9459010C94EC
:1000A0003A080C940000880F880F98E080FF02C087
:1000B000439A01C043988695419A25E02A95F1F725
:1000C0000000419825E02A95F1F70000915071F762
:1000D00088E0662314F4439A01C04398660F419A5E
:1000E00095E09A95F1F70000419825E02A95F1F7FF
:1000F0000000815071F7419A85E08A95F1F7000080
:1001000041984298449895E09A95F1F70000449AF6
:1001100025E02A95F1F70000429A0895762F262FC0
:1001200030E0F901EC5FFE4F9081F901E050FF4FA4
:100130005081542321F04095692F642302C0692F18
:10014000642BF901EC5FFE4F6083870F0E94530020
:100150000895762F262F30E0F901EC5FFE4F908155
:10016000F901E050FF4F5081542321F44095692F4D
:10017000642302C0692F642BF901EC5FFE4F60839A
:10018000870F0E94530008958F71E4E0F1E06181D0
:10019000607E682B61838EE10E945300089518B839
:1001A0008FE187B9429A449A409A8AE08A95F1F79A
:1001B00000C040988AE08A95F1F700C040E160E015
:1001C0008DE10E948E0040E263E08DE10E948E008E
:1001D00040E463E08DE10E94A90040E261E08DE12E
:1001E0000E948E0040E461E08DE10E94A9008AE057
:1001F0000E94C40008951F93CF93DF9300D000D0D6
:10020000CDB7DEB7182FCB01BA0120E23CEB4EE3AD
:100210005DE40E94510620E030E040E05FE40E948F
:10022000AB070E94CA06DC01CB01880F991FAA1FE9
:10023000BB1F89839A83AB83BC836C81812F0E940F
:1002400053006B8181E0810F0E9453006A8182E03C
:10025000810F0E945300698183E0810F0E94530047
:1002600060E084E0810F0E94530060E085E0810F30
:100270000E9453000F900F900F900F90DF91CF913D
:100280001F9108951F93CF93DF9300D0CDB7DEB7B2
:10029000182F7A8369836A810E945300698181E003
:1002A000810F0E9453000F900F90DF91CF911F910B
:1002B00008950E940B050E94CF00789440910C0194
:1002C00050910D0160910E0170910F0184E00E9428
:1002D000FB0060910A0170910B0181E20E944201D2
:1002E000609108017091090183E20E9442010E941D
:1002F0009D05FDCFCF93DF93EC018881882331F0FA
:1003000021960E94210589918111FBCFDF91CF9128
:1003100008958F929F92AF92BF92CF92DF92EF9209
:10032000FF920F931F93CF93DF93CDB7DEB72A973A
:100330000FB6F894DEBF0FBECDBF6B017C01042F5A
:1003400020E030E0A9010E944C0688233CF48DE2B5
:100350000E942105F7FAF094F7F8F094023088F043
:10036000102F20E030E048EC52E4C701B6010E94B3
:10037000AB076B017C011250123098F7802F81700F
:1003800001C0802F882351F020E030E040E251E4AA
:10039000C701B6010E94AB076B017C0120E030E091
:1003A00040E05FE3C701B6010E94E0050E94C3067A
:1003B0002EE2FE01E00FF11D21836115710581051B
:1003C000910551F110E0DD24D394D00E0F2EFAE008
:1003D0008F2E912CA12CB12CF02D101302C03D2D8D
:1003E00001C0312F11E0130FEE24E394F12CEC0E39
:1003F000FD1EE30EF11CA50194010E941808605D2A
:10040000F7016083622F732F842F952F611571057B
:100410008105910511F701C010E0101760F480E329
:10042000E1E0F0E0EC0FFD1FE10FF11D80831F5FA5
:100430001013F6CF03C0011309C0012F12E0100FF3
:100440000F5FFE01E00FF11D80E38183112341F076
:10045000FE01E10FF11D80810E9421051150C1F7BD
:100460002A960FB6F894DEBF0FBECDBFDF91CF91B5
:100470001F910F91FF90EF90DF90CF90BF90AF90C2
:100480009F908F9008953F924F925F926F927F92CC
:100490008F929F92AF92BF92CF92DF92EF92FF9294
:1004A0000F931F93CF93DF9300D000D0CDB7DEB76B
:1004B000FC017B01DB018C919F01280F311DD901CB
:1004C0009C919D3249F4B9016E5F7F4F7C836B83B1
:1004D00011969C9101E011C09B3231F0D901119627
:1004E000BC83AB8300E009C0B9016E5F7F4F7C83A2
:1004F0006B83D90111969C9100E080E030E010E020
:10050000412C512C320171E090539A3010F53F5F2D
:100510003930D8F48111115053014201880C991CD3
:10052000AA1CBB1C880C991CAA1CBB1C840C951C07
:10053000A61CB71C880C991CAA1CBB1C24013501E5
:10054000490E511C611C711C09C0811107C01F5F3D
:1005500005C09E3F69F481110DC0872FAB81BC811E
:100560002C91222389F21196BC83AB83922FCCCF9E
:10057000312E01C0312E332309F457C06A01FA83AA
:10058000E983C301B2010E94F9064B015C0120E03E
:1005900030E0A9010E944C06882359F1BFEF3B16B9
:1005A0006CF42AE037ED43E25CE3C501B4010E943C
:1005B000AB074B015C011E5F1F3F9CF311235CF4F2
:1005C0002DEC3CEC4CEC5DE3C501B4010E94AB07A3
:1005D0004B015C010EC0111664F420E030E040E2F3
:1005E00051E4C501B4010E94AB074B015C011150FD
:1005F000A1F7002349F0D501C401B058F60180836A
:100600009183A283B38306C0D6018D929D92AD9251
:10061000BC9213972B813C81E981FA812E1B3F0B01
:100620002150D7012C9381E001C080E00F900F9002
:100630000F900F90DF91CF911F910F91FF90EF904E
:10064000DF90CF90BF90AF909F908F907F906F90F2
:100650005F904F903F9008951F93CF93DF9300D00A
:1006600000D01F92CDB7DEB7FC011982908199238B
:1006700009F4C8C1943409F042C08181813451F435
:1006800040E263E08DE10E94A90080E191E00E94D8
:100690007A01B8C1833451F440E160E08DE10E94F9
:1006A000A9008CE291E00E947A01ACC1893451F436
:1006B00040E463E08DE10E94A90081E491E00E94A2
:1006C0007A01A0C1803551F440E261E08DE10E94E1
:1006D000A90083E591E00E947A0194C1823551F42A
:1006E00040E461E08DE10E94A90081E691E00E9472
:1006F0007A0188C185E791E00E947A0183C195342F
:1007000009F042C08181813451F440E263E08DE11F
:100710000E948E008EE891E00E947A0173C18334BA
:1007200051F440E160E08DE10E948E0089EA91E0A1
:100730000E947A0167C1893451F440E463E08DE19D
:100740000E948E008DEB91E00E947A015BC18035A2
:1007500051F440E261E08DE10E948E008EEC91E068
:100760000E947A014FC1823551F440E461E08DE18D
:100770000E948E008BED91E00E947A0143C18EEEC3
:1007800091E00E947A013EC1993491F50E94CF0018
:1007900080E094E2A4E7B9E480930C0190930D010A
:1007A000A0930E01B0930F018FEF9FE0909309018A
:1007B0008093080190930B0180930A0140E054E27A
:1007C00064E779E484E00E94FB0060910A01709183
:1007D0000B0181E20E9442016091080170910901C0
:1007E00083E20E94420186E092E00E947A010AC1FF
:1007F000963489F581E08983AE014E5F5F4FBE017B
:100800006F5F7F4FCF010E9443028823F9F04A8136
:100810005B816C817D8140930C0150930D0160934D
:100820000E0170930F0184E00E94FB008EE192E0C4
:100830000E947A016A817B818C819D8142E00E94C5
:1008400089018CE192E00E947A01DCC08EE292E0A4
:100850000E947A01D7C09035B9F581E08983AE0155
:100860004E5F5F4FBE016F5F7F4FCF010E9443021B
:10087000882329F16A817B818C819D810E94CA062F
:10088000162F1F71612F70E080E090E00E94F90642
:100890006A837B838C839D83812F0E94C40089E4BB
:1008A00092E00E947A016A817B818C819D8142E085
:1008B0000E9489018CE192E00E947A01A3C08EE53A
:1008C00092E00E947A019EC0913409F097C0818124
:1008D0008234B1F582E08983AE014E5F5F4FBE0185
:1008E0006F5F7F4FCF010E944302882309F48AC0C3
:1008F0006A817B818C819D810E94CA067093090167
:100900006093080170930B0160930A0181E20E94D9
:100910004201609108017091090183E20E94420145
:100920008EE792E00E947A016A817B818C819D81B1
:1009300042E00E9489018CE192E00E947A0162C04B
:10094000893459F582E08983AE014E5F5F4FBE0165
:100950006F5F7F4FCF010E944302882309F452C08A
:100960006A817B818C819D810E94CA0670930B01F4
:1009700060930A0181E20E94420183E992E00E94B1
:100980007A016A817B818C819D8142E00E9489018C
:100990008CE192E00E947A0135C0813551F582E008
:1009A0008983AE014E5F5F4FBE016F5F7F4FCF0106
:1009B0000E944302882331F16A817B818C819D8171
:1009C0000E94CA06709309016093080183E20E94A5
:1009D000420185EA92E00E947A016A817B818C81E2
:1009E0009D8142E00E9489018CE192E00E947A019F
:1009F00009C087EB92E00E947A0104C082ED92E088
:100A00000E947A010F900F900F900F900F90DF913E
:100A1000CF911F910895E0ECF0E0808182608083A7
:100A20001092C50082E28093C400E1ECF0E0808186
:100A300080618083808188608083808180688083FA
:100A40000895E091530321E02E0F203409F420E0B3
:100A5000909152039217E1F3F0E0EA5AFC4F808341
:100A600020935303E1ECF0E080818062808308955D
:100A70001F920F920FB60F9211248F939F93EF93B3
:100A8000FF9380915203E82FF0E0EA5AFC4F9081E7
:100A90009093C6008F5F803409F480E08093520306
:100AA00090915303891305C0E1ECF0E080818F7DC4
:100AB0008083FF91EF919F918F910F900FBE0F90C8
:100AC0001F9018959091540380915503891761F0F8
:100AD000E92FF0E0EA56FC4F80819F5F903809F4DF
:100AE00090E09093540308958FEF08951F920F9212
:100AF0000FB60F9211242F938F939F93EF93FF9331
:100B00002091C600E091550381E08E0F803809F4F2
:100B100080E090915403891731F0F0E0EA56FC4FE1
:100B2000208380935503FF91EF919F918F912F9197
:100B30000F900FBE0F901F90189583EE92E00E94C9
:100B40007A01C0E0D0E010E001E034C08A3011F05A
:100B50008D3061F4EC2FF0E0EE5FFC4F108282E00C
:100B600093E00E942C03C12FD12F24C0DD2321F05C
:100B7000893201F5D12F1EC08132E0F08F32D1F0E1
:100B80008832A9F0CF34A8F49FE9980F9A3140F445
:100B9000EC2FF0E0EE5FFC4F80528083CF5F0AC005
:100BA000EC2FF0E0EE5FFC4F8083CF5F03C0D02FCF
:100BB00001C0C12F0E9462058F3F41F6FBCF505804
:100BC000BB27AA270E94F7050C9471070E946307B0
:100BD00038F00E946A0720F039F49F3F19F426F498
:100BE0000C9460070EF4E095E7FB0C945A07E92F8C
:100BF0000E94820758F3BA176207730784079507A4
:100C000020F079F4A6F50C94A4070EF4E0950B2ED1
:100C1000BA2FA02D0B01B90190010C01CA01A0014E
:100C20001124FF27591B99F0593F50F4503E68F1A9
:100C30001A16F040A22F232F342F4427585FF3CFEA
:100C4000469537952795A795F0405395C9F77EF4BB
:100C50001F16BA0B620B730B840BBAF09150A1F004
:100C6000FF0FBB1F661F771F881FC2F70EC0BA0F8A
:100C7000621F731F841F48F4879577956795B79512
:100C8000F7959E3F08F0B0CF9395880F08F099270D
:100C9000EE0F9795879508950E94360708F481E036
:100CA00008950E9465060C9471070E946A0758F027
:100CB0000E94630740F029F45F3F29F00C945A0723
:100CC00051110C94A5070C9460070E94820768F3E9
:100CD0009923B1F3552391F3951B550BBB27AA27F5
:100CE00062177307840738F09F5F5F4F220F331F2F
:100CF000441FAA1FA9F335D00E2E3AF0E0E832D0F7
:100D000091505040E695001CCAF72BD0FE2F29D0F9
:100D1000660F771F881FBB1F261737074807AB07CB
:100D2000B0E809F0BB0B802DBF01FF2793585F4F40
:100D30003AF09E3F510578F00C945A070C94A507A1
:100D40005F3FE4F3983ED4F3869577956795B79522
:100D5000F7959F5FC9F7880F911D9695879597F92D
:100D60000895E1E0660F771F881FBB1F62177307A6
:100D70008407BA0720F0621B730B840BBA0BEE1FBB
:100D800088F7E09508950E94CA066894B1110C9402
:100D9000A50708950E948A0788F09F5798F0B92FF9
:100DA0009927B751B0F0E1F0660F771F881F991FA0
:100DB0001AF0BA95C9F714C0B13091F00E94A40797
:100DC000B1E008950C94A407672F782F8827B85FA7
:100DD00039F0B93FCCF3869577956795B395D9F7F8
:100DE0003EF490958095709561957F4F8F4F9F4F02
:100DF0000895E89409C097FB3EF49095809570950E
:100E000061957F4F8F4F9F4F9923A9F0F92F96E956
:100E1000BB279395F695879577956795B795F111CB
:100E2000F8CFFAF4BB0F11F460FF1BC06F5F7F4F68
:100E30008F4F9F4F16C0882311F096E911C077237A
:100E400021F09EE8872F762F05C0662371F096E883
:100E5000862F70E060E02AF09A95660F771F881F52
:100E6000DAF7880F9695879597F90895990F0008F6
:100E7000550FAA0BE0E8FEEF16161706E807F9076C
:100E8000C0F012161306E407F50798F0621B730B07
:100E9000840B950B39F40A2661F0232B242B252B88
:100EA00021F408950A2609F4A140A6958FEF811D2B
:100EB000811D089597F99F6780E870E060E00895CC
:100EC0009FEF80EC089500240A9416161706180662
:100ED0000906089500240A9412161306140605063E
:100EE0000895092E0394000C11F4882352F0BB0FCF
:100EF00040F4BF2B11F460FF04C06F5F7F4F8F4F32
:100F00009F4F089557FD9058440F551F59F05F3F6C
:100F100071F04795880F97FB991F61F09F3F79F01B
:100F200087950895121613061406551FF2CF46959D
:100F3000F1DF08C0161617061806991FF1CF86951F
:100F40007105610508940895E894BB276627772703
:100F5000CB0197F908950E94BE070C9471070E9477
:100F6000630738F00E946A0720F0952311F00C9473
:100F70005A070C94600711240C94A5070E9482075D
:100F800070F3959FC1F3950F50E0551F629FF001DC
:100F9000729FBB27F00DB11D639FAA27F00DB11DF5
:100FA000AA1F649F6627B00DA11D661F829F22277E
:100FB000B00DA11D621F739FB00DA11D621F839F05
:100FC000A00D611D221F749F3327A00D611D231FDB
:100FD000849F600D211D822F762F6A2F11249F5729
:100FE00050409AF0F1F088234AF0EE0FFF1FBB1F2C
:100FF000661F771F881F91505040A9F79E3F5105EB
:1010000080F00C945A070C94A5075F3FE4F3983ED8
:10101000D4F3869577956795B795F795E7959F5F94
:10102000C1F7FE2B880F911D9695879597F9089526
:10103000A1E21A2EAA1BBB1BFD010DC0AA1FBB1FDC
:10104000EE1FFF1FA217B307E407F50720F0A21B4E
:10105000B30BE40BF50B661F771F881F991F1A94BB
:1010600069F760957095809590959B01AC01BD01E5
:08107000CF010895F894FFCFB1
:101078001020004010640120FF0FFF0F0024744966
:10108800416D706C697475646520636F6E74726FFE
:101098006C2064697361626C65640A00436F6D70EB
:1010A800617261746F722064697361626C65640A4D
:1010B80000496E7653696E632064697361626C657A
:1010C800640A00504C4C2064697361626C65640A60
:1010D80000504C4C2052616E6765206469736162F0
:1010E8006C65640A00496E76616C696420446973B2
:1010F80061626C6520636F6D6D616E640A00416D9D
:10110800706C697475646520636F6E74726F6C209F
:10111800656E61626C65640A00436F6D706172612F
:10112800746F7220656E61626C65640A00496E7640
:1011380053696E6320656E61626C65640A00504C89
:101148004C20656E61626C65640A00504C4C2052FC
:10115800616E676520656E61626C65640A00496E40
:1011680076616C696420456E61626C6520636F6DA1
:101178006D616E640A00496E697469616C697365B2
:101188006420746865204144393835340A00467251
:10119800657175656E6379207365743A2000496ED0
:1011A80076616C6964204672657175656E63792035
:1011B800636F6D6D616E640A00504C4C206D756CE8
:1011C8007469706C696572207365743A2000496EA1
:1011D80076616C696420504C4C206D756C74697034
:1011E8006C69657220636F6D6D616E640A00416D94
:1011F800706C69747564652073657420426F7468D7
:101208003A2000416D706C6974756465207365746B
:1012180020493A2000416D706C69747564652073CB
:10122800657420513A2000496E76616C69642041EA
:101238006D706C697475646520636F6D6D616E6443
:101248000A00496E76616C696420636F6D6D616E2A
:10125800640A0054686973206973207468652041C2
:10126800443938353420636F6E74726F6C6C6572F4
:021278000A006A
:00000001FF
