:100000000C945C000C946E000C946E000C946E00CA
:100010000C946E000C946E000C946E000C946E00A8
:100020000C946E000C946E000C946E000C946E0098
:100030000C946E000C946E000C946E000C946E0088
:100040000C9442040C946E000C946E000C946E00A0
:100050000C946E000C946E000C946E000C946E0068
:100060000C946E000C946E00000000080002010069
:100070000003040700000000000000000000000072
:10008000250028002B0000000000240027002A0083
:10009000040404040404040402020202020203032E
:1000A0000303030301020408102040800102040836
:1000B000102001020408102011241FBECFEFD8E049
:1000C000DEBFCDBF21E0A0E0B1E001C01D92AA30AB
:1000D000B207E1F70E948C040C94B5130C94000055
:1000E00090E0FC01EC55FF4F249180579F4FFC019D
:1000F0008491882399F090E0880F991FFC01EA57BA
:10010000FF4FA591B491FC01E458FF4F8591949164
:100110008FB7F894EC91E22BEC938FBF089590E0A9
:10012000FC01E859FF4F2491FC01EC55FF4F34913D
:10013000FC01E057FF4FE491EE23C9F0222339F090
:10014000233001F1A8F4213019F1223029F1F0E037
:10015000EE0FFF1FE458FF4FA591B4918FB7F894AD
:10016000EC91611126C030953E233C938FBF0895DA
:100170002730A9F02830C9F0243049F78091800059
:100180008F7D03C0809180008F7780938000DFCFC8
:1001900084B58F7784BDDBCF84B58F7DFBCF809115
:1001A000B0008F778093B000D2CF8091B0008F7D68
:1001B000F9CF3E2BDACF3FB7F894809105019091AB
:1001C0000601A0910701B091080126B5A89B05C0C2
:1001D0002F3F19F00196A11DB11D3FBFBA2FA92FC6
:1001E000982F8827BC01CD01620F711D811D911DC3
:1001F00042E0660F771F881F991F4A95D1F708952F
:100200008F929F92AF92BF92CF92DF92EF92FF9226
:100210004B015C010E94DB006B017C010E94DB0052
:100220006C197D098E099F09683E7340810591050F
:10023000A8F321E0821A9108A108B10888EEC80E3F
:1002400083E0D81EE11CF11C81149104A104B104C7
:1002500029F7FF90EF90DF90CF90BF90AF909F90E5
:100260008F900895CF93DF9361E087E00E948F0025
:1002700060E085E00E948F0061E070E080E090E047
:100280000E94000161E086E00E948F006AE070E059
:1002900080E090E00E94000160E086E00E948F0014
:1002A00061E070E080E090E00E94000185E18093D1
:1002B0000901D5E0C091090161E0C4FF60E085E07B
:1002C0000E948F0061E070E080E090E00E940001F9
:1002D0008C2F90E0959587958093090161E086E0E9
:1002E0000E948F006AE070E080E090E00E940001D0
:1002F00060E086E00E948F0061E070E080E090E0C6
:100300000E940001D150B1F660E085E00E948F00AC
:1003100061E070E080E090E00E94000161E086E032
:100320000E948F006AE070E080E090E00E9400018F
:1003300060E086E00E948F0061E070E080E090E085
:100340000E94000161E085E00E948F0061E070E0A2
:1003500080E090E00E94000161E086E00E948F0052
:100360006AE070E080E090E00E94000160E086E0DA
:100370000E948F0061E070E080E090E00E94000148
:100380008EE080930901D8E0C091090161E0C7FFC8
:1003900060E085E00E948F0061E070E080E090E026
:1003A0000E9400018C2F90E095958795809309011C
:1003B00061E086E00E948F006AE070E080E090E0FB
:1003C0000E94000160E086E00E948F0061E070E022
:1003D00080E090E00E940001D150B1F61092090136
:1003E00060E087E0DF91CF910C948F00CF93DF9393
:1003F00061E087E00E948F0060E085E00E948F004E
:1004000061E070E080E090E00E94000161E086E041
:100410000E948F006AE070E080E090E00E9400019E
:1004200060E086E00E948F0061E070E080E090E094
:100430000E94000189E180930901D5E0C091090182
:1004400061E0C4FF60E085E00E948F0061E070E041
:1004500080E090E00E9400018C2F90E095958795B8
:100460008093090161E086E00E948F006AE070E0FD
:1004700080E090E00E94000160E086E00E948F0032
:1004800061E070E080E090E00E940001D150B1F6A0
:1004900060E085E00E948F0061E070E080E090E025
:1004A0000E94000161E086E00E948F006AE070E037
:1004B00080E090E00E94000160E086E00E948F00F2
:1004C00061E070E080E090E00E94000161E085E082
:1004D0000E948F0061E070E080E090E00E940001E7
:1004E00061E086E00E948F006AE070E080E090E0CA
:1004F0000E94000160E086E00E948F0061E070E0F1
:1005000080E090E00E9400018DE280930901D8E034
:10051000C091090161E0C7FF60E085E00E948F00A3
:1005200061E070E080E090E00E9400018C2F90E09C
:10053000959587958093090161E086E00E948F0080
:100540006AE070E080E090E00E94000160E086E0F8
:100550000E948F0061E070E080E090E00E94000166
:10056000D150B1F61092090160E087E0DF91CF91A0
:100570000C948F00CF93DF9361E087E00E948F009F
:1005800060E085E00E948F0061E070E080E090E034
:100590000E94000161E086E00E948F006AE070E046
:1005A00080E090E00E94000160E086E00E948F0001
:1005B00061E070E080E090E00E94000189E08093BB
:1005C0000901D5E0C091090161E0C4FF60E085E068
:1005D0000E948F0061E070E080E090E00E940001E6
:1005E0008C2F90E0959587958093090161E086E0D6
:1005F0000E948F006AE070E080E090E00E940001BD
:1006000060E086E00E948F0061E070E080E090E0B2
:100610000E940001D150B1F660E085E00E948F0099
:1006200061E070E080E090E00E94000161E086E01F
:100630000E948F006AE070E080E090E00E9400017C
:1006400060E086E00E948F0061E070E080E090E072
:100650000E94000161E085E00E948F0061E070E08F
:1006600080E090E00E94000161E086E00E948F003F
:100670006AE070E080E090E00E94000160E086E0C7
:100680000E948F0061E070E080E090E00E94000135
:100690008FE080930901D8E0C091090161E0C7FFB4
:1006A00060E085E00E948F0061E070E080E090E013
:1006B0000E9400018C2F90E0959587958093090109
:1006C00061E086E00E948F006AE070E080E090E0E8
:1006D0000E94000160E086E00E948F0061E070E00F
:1006E00080E090E00E940001D150B1F61092090123
:1006F00060E087E0DF91CF910C948F00CF93DF9380
:1007000061E087E00E948F0060E085E00E948F003A
:1007100061E070E080E090E00E94000161E086E02E
:100720000E948F006AE070E080E090E00E9400018B
:1007300060E086E00E948F0061E070E080E090E081
:100740000E94000181E180930901D5E0C091090177
:1007500061E0C4FF60E085E00E948F0061E070E02E
:1007600080E090E00E9400018C2F90E095958795A5
:100770008093090161E086E00E948F006AE070E0EA
:1007800080E090E00E94000160E086E00E948F001F
:1007900061E070E080E090E00E940001D150B1F68D
:1007A00060E085E00E948F0061E070E080E090E012
:1007B0000E94000161E086E00E948F006AE070E024
:1007C00080E090E00E94000160E086E00E948F00DF
:1007D00061E070E080E090E00E94000161E085E06F
:1007E0000E948F0061E070E080E090E00E940001D4
:1007F00061E086E00E948F006AE070E080E090E0B7
:100800000E94000160E086E00E948F0061E070E0DD
:1008100080E090E00E9400018FEF80930901D8E012
:10082000C091090161E0C7FF60E085E00E948F0090
:1008300061E070E080E090E00E9400018C2F90E089
:10084000959587958093090161E086E00E948F006D
:100850006AE070E080E090E00E94000160E086E0E5
:100860000E948F0061E070E080E090E00E94000153
:10087000D150B1F61092090160E087E0DF91CF918D
:100880000C948F001F920F920FB60F9211242F938A
:100890003F938F939F93AF93BF938091010190916A
:1008A0000201A0910301B09104013091000123E005
:1008B000230F2D3758F50196A11DB11D209300017E
:1008C0008093010190930201A0930301B09304016E
:1008D0008091050190910601A0910701B091080156
:1008E0000196A11DB11D8093050190930601A0936F
:1008F0000701B0930801BF91AF919F918F913F91F4
:100900002F910F900FBE0F901F90189526E8230F80
:100910000296A11DB11DD2CF789484B5826084BDAA
:1009200084B5816084BD85B5826085BD85B58160F3
:1009300085BD80916E00816080936E001092810071
:10094000809181008260809381008091810081602C
:1009500080938100809180008160809380008091ED
:10096000B10084608093B1008091B0008160809379
:10097000B00080917A00846080937A0080917A0040
:10098000826080937A0080917A00816080937A00FF
:1009900080917A00806880937A001092C10087E08D
:1009A0000E94700085E00E94700086E00E94700046
:1009B0006AE070E080E090E00E9400016AE070E090
:1009C00080E090E00E94000160E177E280E090E04A
:1009D0000E940001D0E118E008E1A4E0FA2EB4E1A1
:1009E000EB2ECCEFBC2E8CE0A82E9EE7992E2CE1AE
:1009F000822E31EA732E42E0642E55EC552E60E0D3
:100A0000C62E60E0D62E6AE070E080E090E00E94A2
:100A1000000161E087E00E948F0060E085E00E94B5
:100A20008F0061E070E080E090E00E94000161E0F2
:100A300086E00E948F006AE070E080E090E00E9413
:100A4000000160E086E00E948F0061E070E080E0DD
:100A500090E00E94000110920901C5E04090090158
:100A600061E044FE60E085E00E948F0061E070E09C
:100A700080E090E00E940001842D90E0959587959C
:100A80008093090161E086E00E948F006AE070E0D7
:100A900080E090E00E94000160E086E00E948F000C
:100AA00061E070E080E090E00E940001C150B1F68A
:100AB0001092090160E085E00E948F0061E070E023
:100AC00080E090E00E94000161E086E00E948F00DB
:100AD0006AE070E080E090E00E94000160E086E063
:100AE0000E948F0061E070E080E090E00E940001D1
:100AF00061E085E00E948F0061E070E080E090E0BE
:100B00000E94000161E086E00E948F006AE070E0D0
:100B100080E090E00E94000160E086E00E948F008B
:100B200061E070E080E090E00E940001C8E0409049
:100B3000090161E047FE60E085E00E948F0061E00E
:100B400070E080E090E00E940001842D90E0959597
:100B500087958093090161E086E00E948F006AE03A
:100B600070E080E090E00E94000160E086E00E947A
:100B70008F0061E070E080E090E00E940001C150D1
:100B8000B1F660E087E00E948F006AE070E080E0EC
:100B900090E00E94000161E087E00E948F0060E029
:100BA00085E00E948F0061E070E080E090E00E94AC
:100BB000000161E086E00E948F006AE070E080E062
:100BC00090E00E94000160E086E00E948F0061E0FA
:100BD00070E080E090E00E940001D0930901C5E040
:100BE0004090090161E044FE60E085E00E948F00D2
:100BF00061E070E080E090E00E940001842D90E0D0
:100C0000959587958093090161E086E00E948F00A9
:100C10006AE070E080E090E00E94000160E086E021
:100C20000E948F0061E070E080E090E00E9400018F
:100C3000C150B1F61092090160E085E00E948F007A
:100C400061E070E080E090E00E94000161E086E0F9
:100C50000E948F006AE070E080E090E00E94000156
:100C600060E086E00E948F0061E070E080E090E04C
:100C70000E94000161E085E00E948F0061E070E069
:100C800080E090E00E94000161E086E00E948F0019
:100C90006AE070E080E090E00E94000160E086E0A1
:100CA0000E948F0061E070E080E090E00E9400010F
:100CB000C8E04090090161E047FE60E085E00E94E5
:100CC0008F0061E070E080E090E00E940001842DE0
:100CD00090E0959587958093090161E086E00E94F8
:100CE0008F006AE070E080E090E00E94000160E028
:100CF00086E00E948F0061E070E080E090E00E945A
:100D00000001C150B1F660E087E00E948F006AE008
:100D100070E080E090E00E94000161E087E00E94C6
:100D20008F0060E085E00E948F0061E070E080E06D
:100D300090E00E94000161E086E00E948F006AE07E
:100D400070E080E090E00E94000160E086E00E9498
:100D50008F0061E070E080E090E00E94000110935D
:100D60000901C5E04090090161E044FE60E085E0D2
:100D70000E948F0061E070E080E090E00E9400013E
:100D8000842D90E0959587958093090161E086E038
:100D90000E948F006AE070E080E090E00E94000115
:100DA00060E086E00E948F0061E070E080E090E00B
:100DB0000E940001C150B1F660E085E00E948F0002
:100DC00061E070E080E090E00E94000161E086E078
:100DD0000E948F006AE070E080E090E00E940001D5
:100DE00060E086E00E948F0061E070E080E090E0CB
:100DF0000E94000161E085E00E948F0061E070E0E8
:100E000080E090E00E94000161E086E00E948F0097
:100E10006AE070E080E090E00E94000160E086E01F
:100E20000E948F0061E070E080E090E00E9400018D
:100E300081E080930901C8E04090090161E047FE2C
:100E400060E085E00E948F0061E070E080E090E06B
:100E50000E940001842D90E095958795809309016B
:100E600061E086E00E948F006AE070E080E090E040
:100E70000E94000160E086E00E948F0061E070E067
:100E800080E090E00E940001C150B1F660E087E090
:100E90000E948F006AE070E080E090E00E94000114
:100EA00061E087E00E948F0060E085E00E948F0093
:100EB00061E070E080E090E00E94000161E086E087
:100EC0000E948F006AE070E080E090E00E940001E4
:100ED00060E086E00E948F0061E070E080E090E0DA
:100EE0000E94000100930901C5E04090090161E002
:100EF00044FE60E085E00E948F0061E070E080E0E9
:100F000090E00E940001842D90E095958795809354
:100F1000090161E086E00E948F006AE070E080E0F5
:100F200090E00E94000160E086E00E948F0061E096
:100F300070E080E090E00E940001C150B1F6109294
:100F4000090160E085E00E948F0061E070E080E0D0
:100F500090E00E94000161E086E00E948F006AE05C
:100F600070E080E090E00E94000160E086E00E9476
:100F70008F0061E070E080E090E00E94000161E09D
:100F800085E00E948F0061E070E080E090E00E94C8
:100F9000000161E086E00E948F006AE070E080E07E
:100FA00090E00E94000160E086E00E948F0061E016
:100FB00070E080E090E00E940001C8E040900901EC
:100FC00061E047FE60E085E00E948F0061E070E034
:100FD00080E090E00E940001842D90E09595879537
:100FE0008093090161E086E00E948F006AE070E072
:100FF00080E090E00E94000160E086E00E948F00A7
:1010000061E070E080E090E00E940001C150B1F624
:1010100060E087E00E948F006AE070E080E090E08E
:101020000E94000161E087E00E948F0060E085E09F
:101030000E948F0061E070E080E090E00E9400017B
:1010400061E086E00E948F006AE070E080E090E05E
:101050000E94000160E086E00E948F0061E070E085
:1010600080E090E00E940001F0920901C5E040900C
:10107000090161E044FE60E085E00E948F0061E0CC
:1010800070E080E090E00E940001842D90E0959552
:1010900087958093090161E086E00E948F006AE0F5
:1010A00070E080E090E00E94000160E086E00E9435
:1010B0008F0061E070E080E090E00E940001C1508C
:1010C000B1F660E085E00E948F0061E070E080E0B2
:1010D00090E00E94000161E086E00E948F006AE0DB
:1010E00070E080E090E00E94000160E086E00E94F5
:1010F0008F0061E070E080E090E00E94000161E01C
:1011000085E00E948F0061E070E080E090E00E9446
:10111000000161E086E00E948F006AE070E080E0FC
:1011200090E00E94000160E086E00E948F0061E094
:1011300070E080E090E00E94000181E0809309016E
:10114000C8E04090090161E047FE60E085E00E9450
:101150008F0061E070E080E090E00E940001842D4B
:1011600090E0959587958093090161E086E00E9463
:101170008F006AE070E080E090E00E94000160E093
:1011800086E00E948F0061E070E080E090E00E94C5
:101190000001C150B1F660E087E00E948F006AE074
:1011A00070E080E090E00E94000161E087E00E9432
:1011B0008F0060E085E00E948F0061E070E080E0D9
:1011C00090E00E94000161E086E00E948F006AE0EA
:1011D00070E080E090E00E94000160E086E00E9404
:1011E0008F0061E070E080E090E00E940001E092FA
:1011F0000901C5E04090090161E044FE60E085E03E
:101200000E948F0061E070E080E090E00E940001A9
:10121000842D90E0959587958093090161E086E0A3
:101220000E948F006AE070E080E090E00E94000180
:1012300060E086E00E948F0061E070E080E090E076
:101240000E940001C150B1F660E085E00E948F006D
:1012500061E070E080E090E00E94000161E086E0E3
:101260000E948F006AE070E080E090E00E94000140
:1012700060E086E00E948F0061E070E080E090E036
:101280000E94000161E085E00E948F0061E070E053
:1012900080E090E00E94000161E086E00E948F0003
:1012A0006AE070E080E090E00E94000160E086E08B
:1012B0000E948F0061E070E080E090E00E940001F9
:1012C000B0920901C8E04090090161E047FE60E08A
:1012D00085E00E948F0061E070E080E090E00E9475
:1012E0000001842D90E0959587958093090161E038
:1012F00086E00E948F006AE070E080E090E00E944B
:10130000000160E086E00E948F0061E070E080E014
:1013100090E00E940001C150B1F660E087E00E94B9
:101320008F006AE070E080E090E00E94000161E0E0
:1013300087E00E948F0060E085E00E948F0061E0FE
:1013400070E080E090E00E94000161E086E00E9491
:101350008F006AE070E080E090E00E94000160E0B1
:1013600086E00E948F0061E070E080E090E00E94E3
:101370000001A0920901C5E04090090161E044FE2E
:1013800060E085E00E948F0061E070E080E090E026
:101390000E940001842D90E0959587958093090126
:1013A00061E086E00E948F006AE070E080E090E0FB
:1013B0000E94000160E086E00E948F0061E070E022
:1013C00080E090E00E940001C150B1F660E085E04D
:1013D0000E948F0061E070E080E090E00E940001D8
:1013E00061E086E00E948F006AE070E080E090E0BB
:1013F0000E94000160E086E00E948F0061E070E0E2
:1014000080E090E00E94000161E085E00E948F0092
:1014100061E070E080E090E00E94000161E086E021
:101420000E948F006AE070E080E090E00E9400017E
:1014300060E086E00E948F0061E070E080E090E074
:101440000E94000190920901C8E04090090161E00A
:1014500047FE60E085E00E948F0061E070E080E080
:1014600090E00E940001842D90E0959587958093EF
:10147000090161E086E00E948F006AE070E080E090
:1014800090E00E94000160E086E00E948F0061E031
:1014900070E080E090E00E940001C150B1F660E091
:1014A00087E00E948F006AE070E080E090E00E9498
:1014B000000161E087E00E948F0060E085E00E940B
:1014C0008F0061E070E080E090E00E94000161E048
:1014D00086E00E948F006AE070E080E090E00E9469
:1014E000000160E086E00E948F0061E070E080E033
:1014F00090E00E94000180920901C5E0409009013E
:1015000061E044FE60E085E00E948F0061E070E0F1
:1015100080E090E00E940001842D90E095958795F1
:101520008093090161E086E00E948F006AE070E02C
:1015300080E090E00E94000160E086E00E948F0061
:1015400061E070E080E090E00E940001C150B1F6DF
:1015500060E085E00E948F0061E070E080E090E054
:101560000E94000161E086E00E948F006AE070E066
:1015700080E090E00E94000160E086E00E948F0021
:1015800061E070E080E090E00E94000161E085E0B1
:101590000E948F0061E070E080E090E00E94000116
:1015A00061E086E00E948F006AE070E080E090E0F9
:1015B0000E94000160E086E00E948F0061E070E020
:1015C00080E090E00E94000170920901C8E0409024
:1015D000090161E047FE60E085E00E948F0061E064
:1015E00070E080E090E00E940001842D90E09595ED
:1015F00087958093090161E086E00E948F006AE090
:1016000070E080E090E00E94000160E086E00E94CF
:101610008F0061E070E080E090E00E940001C15026
:10162000B1F660E087E00E948F006AE070E080E041
:1016300090E00E94000161E087E00E948F0060E07E
:1016400085E00E948F0061E070E080E090E00E9401
:10165000000161E086E00E948F006AE070E080E0B7
:1016600090E00E94000160E086E00E948F0061E04F
:1016700070E080E090E00E94000160920901C5E006
:101680004090090161E044FE60E085E00E948F0027
:1016900061E070E080E090E00E940001842D90E025
:1016A000959587958093090161E086E00E948F00FF
:1016B0006AE070E080E090E00E94000160E086E077
:1016C0000E948F0061E070E080E090E00E940001E5
:1016D000C150B1F660E085E00E948F0061E070E0EB
:1016E00080E090E00E94000161E086E00E948F00AF
:1016F0006AE070E080E090E00E94000160E086E037
:101700000E948F0061E070E080E090E00E940001A4
:1017100061E085E00E948F0061E070E080E090E091
:101720000E94000161E086E00E948F006AE070E0A4
:1017300080E090E00E94000160E086E00E948F005F
:1017400061E070E080E090E00E94000150920901A9
:10175000C8E04090090161E047FE60E085E00E943A
:101760008F0061E070E080E090E00E940001842D35
:1017700090E0959587958093090161E086E00E944D
:101780008F006AE070E080E090E00E94000160E07D
:1017900086E00E948F0061E070E080E090E00E94AF
:1017A0000001C150B1F660E087E00E948F006AE05E
:1017B00070E080E090E00E94000161E087E00E941C
:1017C0008F0060E085E00E948F0061E070E080E0C3
:1017D00090E00E94000161E086E00E948F006AE0D4
:1017E00070E080E090E00E94000160E086E00E94EE
:1017F0008F0061E070E080E090E00E94000182E1F3
:1018000080930901C5E04090090161E044FE60E079
:1018100085E00E948F0061E070E080E090E00E942F
:101820000001842D90E0959587958093090161E0F2
:1018300086E00E948F006AE070E080E090E00E9405
:10184000000160E086E00E948F0061E070E080E0CF
:1018500090E00E940001C150B1F660E085E00E9476
:101860008F0061E070E080E090E00E94000161E0A4
:1018700086E00E948F006AE070E080E090E00E94C5
:10188000000160E086E00E948F0061E070E080E08F
:1018900090E00E94000161E085E00E948F0061E01D
:1018A00070E080E090E00E94000161E086E00E942C
:1018B0008F006AE070E080E090E00E94000160E04C
:1018C00086E00E948F0061E070E080E090E00E947E
:1018D000000185ED80930901C8E04090090161E0B5
:1018E00047FE60E085E00E948F0061E070E080E0EC
:1018F00090E00E940001842D90E09595879580935B
:10190000090161E086E00E948F006AE070E080E0FB
:1019100090E00E94000160E086E00E948F0061E09C
:1019200070E080E090E00E940001C150B1F660E0FC
:1019300087E00E948F006AE070E080E090E00E9403
:10194000000161E087E00E948F0060E085E00E9476
:101950008F0061E070E080E090E00E94000161E0B3
:1019600086E00E948F006AE070E080E090E00E94D4
:10197000000160E086E00E948F0061E070E080E09E
:1019800090E00E9400018AE080930901C5E0409048
:10199000090161E044FE60E085E00E948F0061E0A3
:1019A00070E080E090E00E940001842D90E0959529
:1019B00087958093090161E086E00E948F006AE0CC
:1019C00070E080E090E00E94000160E086E00E940C
:1019D0008F0061E070E080E090E00E940001C15063
:1019E000B1F660E085E00E948F0061E070E080E089
:1019F00090E00E94000161E086E00E948F006AE0B2
:101A000070E080E090E00E94000160E086E00E94CB
:101A10008F0061E070E080E090E00E94000161E0F2
:101A200085E00E948F0061E070E080E090E00E941D
:101A3000000161E086E00E948F006AE070E080E0D3
:101A400090E00E94000160E086E00E948F0061E06B
:101A500070E080E090E00E94000180E28093090144
:101A6000C8E04090090161E047FE60E085E00E9427
:101A70008F0061E070E080E090E00E940001842D22
:101A800090E0959587958093090161E086E00E943A
:101A90008F006AE070E080E090E00E94000160E06A
:101AA00086E00E948F0061E070E080E090E00E949C
:101AB0000001C150B1F660E087E00E948F006AE04B
:101AC00070E080E090E00E94000161E087E00E9409
:101AD0008F0060E085E00E948F0061E070E080E0B0
:101AE00090E00E94000161E086E00E948F006AE0C1
:101AF00070E080E090E00E94000160E086E00E94DB
:101B00008F0061E070E080E090E00E9400018AE1D7
:101B100080930901C5E04090090161E044FE60E066
:101B200085E00E948F0061E070E080E090E00E941C
:101B30000001842D90E0959587958093090161E0DF
:101B400086E00E948F006AE070E080E090E00E94F2
:101B5000000160E086E00E948F0061E070E080E0BC
:101B600090E00E940001C150B1F61092090160E0BE
:101B700085E00E948F0061E070E080E090E00E94CC
:101B8000000161E086E00E948F006AE070E080E082
:101B900090E00E94000160E086E00E948F0061E01A
:101BA00070E080E090E00E94000161E085E00E942A
:101BB0008F0061E070E080E090E00E94000161E051
:101BC00086E00E948F006AE070E080E090E00E9472
:101BD000000160E086E00E948F0061E070E080E03C
:101BE00090E00E940001C8E04090090161E047FEDA
:101BF00060E085E00E948F0061E070E080E090E0AE
:101C00000E940001842D90E09595879580930901AD
:101C100061E086E00E948F006AE070E080E090E082
:101C20000E94000160E086E00E948F0061E070E0A9
:101C300080E090E00E940001C150B1F660E087E0D2
:101C40000E948F006AE070E080E090E00E94000156
:101C500061E087E00E948F0060E085E00E948F00D5
:101C600061E070E080E090E00E94000161E086E0C9
:101C70000E948F006AE070E080E090E00E94000126
:101C800060E086E00E948F0061E070E080E090E01C
:101C90000E94000186E080930901C5E0409009019F
:101CA00061E044FE60E085E00E948F0061E070E04A
:101CB00080E090E00E940001842D90E0959587954A
:101CC0008093090161E086E00E948F006AE070E085
:101CD00080E090E00E94000160E086E00E948F00BA
:101CE00061E070E080E090E00E940001C150B1F638
:101CF0001092090160E085E00E948F0061E070E0D1
:101D000080E090E00E94000161E086E00E948F0088
:101D10006AE070E080E090E00E94000160E086E010
:101D20000E948F0061E070E080E090E00E9400017E
:101D300061E085E00E948F0061E070E080E090E06B
:101D40000E94000161E086E00E948F006AE070E07E
:101D500080E090E00E94000160E086E00E948F0039
:101D600061E070E080E090E00E940001C8E04090F7
:101D7000090161E047FE60E085E00E948F0061E0BC
:101D800070E080E090E00E940001842D90E0959545
:101D900087958093090161E086E00E948F006AE0E8
:101DA00070E080E090E00E94000160E086E00E9428
:101DB0008F0061E070E080E090E00E940001C1507F
:101DC000B1F660E087E00E948F006AE070E080E09A
:101DD00090E00E94000161E087E00E948F0060E0D7
:101DE00085E00E948F0061E070E080E090E00E945A
:101DF000000161E086E00E948F006AE070E080E010
:101E000090E00E94000160E086E00E948F0061E0A7
:101E100070E080E090E00E94000186E1809309017B
:101E2000C5E04090090161E044FE60E085E00E9469
:101E30008F0061E070E080E090E00E940001842D5E
:101E400090E0959587958093090161E086E00E9476
:101E50008F006AE070E080E090E00E94000160E0A6
:101E600086E00E948F0061E070E080E090E00E94D8
:101E70000001C150B1F61092090160E085E00E94B6
:101E80008F0061E070E080E090E00E94000161E07E
:101E900086E00E948F006AE070E080E090E00E949F
:101EA000000160E086E00E948F0061E070E080E069
:101EB00090E00E94000161E085E00E948F0061E0F7
:101EC00070E080E090E00E94000161E086E00E9406
:101ED0008F006AE070E080E090E00E94000160E026
:101EE00086E00E948F0061E070E080E090E00E9458
:101EF0000001C8E04090090161E047FE60E085E034
:101F00000E948F0061E070E080E090E00E9400019C
:101F1000842D90E0959587958093090161E086E096
:101F20000E948F006AE070E080E090E00E94000173
:101F300060E086E00E948F0061E070E080E090E069
:101F40000E940001C150B1F660E087E00E948F005E
:101F50006AE070E080E090E00E94000161E087E0CC
:101F60000E948F0060E085E00E948F0061E070E0D9
:101F700080E090E00E94000161E086E00E948F0016
:101F80006AE070E080E090E00E94000160E086E09E
:101F90000E948F0061E070E080E090E00E9400010C
:101FA0008EE080930901C5E04090090161E044FEA4
:101FB00060E085E00E948F0061E070E080E090E0EA
:101FC0000E940001842D90E09595879580930901EA
:101FD00061E086E00E948F006AE070E080E090E0BF
:101FE0000E94000160E086E00E948F0061E070E0E6
:101FF00080E090E00E940001C150B1F6109209010A
:1020000060E085E00E948F0061E070E080E090E099
:102010000E94000161E086E00E948F006AE070E0AB
:1020200080E090E00E94000160E086E00E948F0066
:1020300061E070E080E090E00E94000161E085E0F6
:102040000E948F0061E070E080E090E00E9400015B
:1020500061E086E00E948F006AE070E080E090E03E
:102060000E94000160E086E00E948F0061E070E065
:1020700080E090E00E940001C8E04090090161E02A
:1020800047FE60E085E00E948F0061E070E080E044
:1020900090E00E940001842D90E0959587958093B3
:1020A000090161E086E00E948F006AE070E080E054
:1020B00090E00E94000160E086E00E948F0061E0F5
:1020C00070E080E090E00E940001C150B1F660E055
:1020D00087E00E948F006AE070E080E090E00E945C
:1020E000000161E087E00E948F0060E085E00E94CF
:1020F0008F0061E070E080E090E00E94000161E00C
:1021000086E00E948F006AE070E080E090E00E942C
:10211000000160E086E00E948F0061E070E080E0F6
:1021200090E00E9400018EE180930901C5E040909B
:10213000090161E044FE60E085E00E948F0061E0FB
:1021400070E080E090E00E940001842D90E0959581
:1021500087958093090161E086E00E948F006AE024
:1021600070E080E090E00E94000160E086E00E9464
:102170008F0061E070E080E090E00E940001C150BB
:10218000B1F61092090160E085E00E948F0061E0E5
:1021900070E080E090E00E94000161E086E00E9433
:1021A0008F006AE070E080E090E00E94000160E053
:1021B00086E00E948F0061E070E080E090E00E9485
:1021C000000161E085E00E948F0061E070E080E046
:1021D00090E00E94000161E086E00E948F006AE0CA
:1021E00070E080E090E00E94000160E086E00E94E4
:1021F0008F0061E070E080E090E00E940001C8E0A4
:102200004090090161E047FE60E085E00E948F0098
:1022100061E070E080E090E00E940001842D90E099
:10222000959587958093090161E086E00E948F0073
:102230006AE070E080E090E00E94000160E086E0EB
:102240000E948F0061E070E080E090E00E94000159
:10225000C150B1F660E087E00E948F006AE070E054
:1022600080E090E00E94000161E087E00E948F0022
:1022700060E085E00E948F0061E070E080E090E027
:102280000E94000161E086E00E948F006AE070E039
:1022900080E090E00E94000160E086E00E948F00F4
:1022A00061E070E080E090E00E94000181E08093B6
:1022B0000901C5E04090090161E044FE60E085E06D
:1022C0000E948F0061E070E080E090E00E940001D9
:1022D000842D90E0959587958093090161E086E0D3
:1022E0000E948F006AE070E080E090E00E940001B0
:1022F00060E086E00E948F0061E070E080E090E0A6
:102300000E940001C150B1F660E085E00E948F009C
:1023100061E070E080E090E00E94000161E086E012
:102320000E948F006AE070E080E090E00E9400016F
:1023300060E086E00E948F0061E070E080E090E065
:102340000E94000161E085E00E948F0061E070E082
:1023500080E090E00E94000161E086E00E948F0032
:102360006AE070E080E090E00E94000160E086E0BA
:102370000E948F0061E070E080E090E00E94000128
:1023800080E480930901C8E04090090161E047FEC4
:1023900060E085E00E948F0061E070E080E090E006
:1023A0000E940001842D90E0959587958093090106
:1023B00061E086E00E948F006AE070E080E090E0DB
:1023C0000E94000160E086E00E948F0061E070E002
:1023D00080E090E00E940001C150B1F61092090126
:1023E00060E087E00E948F006AE070E080E090E0AB
:1023F0000E9400010E947E036AE070E080E090E0AD
:102400000E9400010E94BA026AE070E080E090E061
:102410000E9400010E94F6016AE070E080E090E016
:102420000E94000161E087E00E948F0060E085E08B
:102430000E948F0061E070E080E090E00E94000167
:1024400061E086E00E948F006AE070E080E090E04A
:102450000E94000160E086E00E948F0061E070E071
:1024600080E090E00E94000185E080930901C5E0D2
:102470004090090161E044FE60E085E00E948F0029
:1024800061E070E080E090E00E940001842D90E027
:10249000959587958093090161E086E00E948F0001
:1024A0006AE070E080E090E00E94000160E086E079
:1024B0000E948F0061E070E080E090E00E940001E7
:1024C000C150B1F660E085E00E948F0061E070E0ED
:1024D00080E090E00E94000161E086E00E948F00B1
:1024E0006AE070E080E090E00E94000160E086E039
:1024F0000E948F0061E070E080E090E00E940001A7
:1025000061E085E00E948F0061E070E080E090E093
:102510000E94000161E086E00E948F006AE070E0A6
:1025200080E090E00E94000160E086E00E948F0061
:1025300061E070E080E090E00E94000183E0809321
:102540000901C8E04090090161E047FE60E085E0D4
:102550000E948F0061E070E080E090E00E94000146
:10256000842D90E0959587958093090161E086E040
:102570000E948F006AE070E080E090E00E9400011D
:1025800060E086E00E948F0061E070E080E090E013
:102590000E940001C150B1F61092090160E087E08D
:1025A0000E948F006AE070E080E090E00E940001ED
:1025B0000E9432016AE070E080E090E00E94000139
:1025C00061E087E00E948F0060E085E00E948F005C
:1025D00061E070E080E090E00E94000161E086E050
:1025E0000E948F006AE070E080E090E00E940001AD
:1025F00060E086E00E948F0061E070E080E090E0A3
:102600000E9400018DE080930901C5E0409009011E
:1026100061E044FE60E085E00E948F0061E070E0D0
:1026200080E090E00E940001842D90E095958795D0
:102630008093090161E086E00E948F006AE070E00B
:1026400080E090E00E94000160E086E00E948F0040
:1026500061E070E080E090E00E940001C150B1F6BE
:1026600060E085E00E948F0061E070E080E090E033
:102670000E94000161E086E00E948F006AE070E045
:1026800080E090E00E94000160E086E00E948F0000
:1026900061E070E080E090E00E94000161E085E090
:1026A0000E948F0061E070E080E090E00E940001F5
:1026B00061E086E00E948F006AE070E080E090E0D8
:1026C0000E94000160E086E00E948F0061E070E0FF
:1026D00080E090E00E94000180EC80930901C8E056
:1026E0004090090161E047FE60E085E00E948F00B4
:1026F00061E070E080E090E00E940001842D90E0B5
:10270000959587958093090161E086E00E948F008E
:102710006AE070E080E090E00E94000160E086E006
:102720000E948F0061E070E080E090E00E94000174
:10273000C150B1F61092090160E087E00E948F005D
:102740006AE070E080E090E00E94000160E477E7DA
:102750008BE190E00E940001C114D10411F40C94AB
:0E27600003050E9400000C940305F894FFCFBF
:00000001FF
